{
  "contractName": "FinalProject",
  "abi": [
    {
      "inputs": [],
      "stateMutability": "nonpayable",
      "type": "constructor"
    },
    {
      "anonymous": false,
      "inputs": [],
      "name": "IsShipped",
      "type": "event"
    },
    {
      "anonymous": false,
      "inputs": [],
      "name": "MissionComplete",
      "type": "event"
    },
    {
      "inputs": [],
      "name": "customer",
      "outputs": [
        {
          "internalType": "address",
          "name": "",
          "type": "address"
        }
      ],
      "stateMutability": "view",
      "type": "function",
      "constant": true
    },
    {
      "inputs": [],
      "name": "owner",
      "outputs": [
        {
          "internalType": "address payable",
          "name": "",
          "type": "address"
        }
      ],
      "stateMutability": "view",
      "type": "function",
      "constant": true
    },
    {
      "inputs": [
        {
          "internalType": "address",
          "name": "customer",
          "type": "address"
        }
      ],
      "name": "setCustomer",
      "outputs": [],
      "stateMutability": "nonpayable",
      "type": "function"
    },
    {
      "inputs": [],
      "name": "shipped",
      "outputs": [],
      "stateMutability": "nonpayable",
      "type": "function"
    },
    {
      "inputs": [],
      "name": "delivered",
      "outputs": [],
      "stateMutability": "nonpayable",
      "type": "function"
    },
    {
      "inputs": [],
      "name": "getStatus",
      "outputs": [
        {
          "internalType": "enum FinalProject.ShippingStatus",
          "name": "",
          "type": "uint8"
        }
      ],
      "stateMutability": "view",
      "type": "function",
      "constant": true
    },
    {
      "inputs": [],
      "name": "Status",
      "outputs": [
        {
          "internalType": "enum FinalProject.ShippingStatus",
          "name": "",
          "type": "uint8"
        }
      ],
      "stateMutability": "payable",
      "type": "function",
      "payable": true
    }
  ],
  "bytecode": "0x608060405234801561001057600080fd5b50336000806101000a81548173ffffffffffffffffffffffffffffffffffffffff021916908373ffffffffffffffffffffffffffffffffffffffff1602179055506000600160146101000a81548160ff0219169083600281111561007757610076610081565b5b02179055506100b0565b7f4e487b7100000000000000000000000000000000000000000000000000000000600052602160045260246000fd5b610610806100bf6000396000f3fe6080604052600436106100705760003560e01c8063620c0c4b1161004e578063620c0c4b146100e95780638da5cb5b14610112578063ba446ae91461013d578063bbdfbfba1461015457610070565b80632804b2c01461007557806345f09ce9146100a05780634e69d560146100be575b600080fd5b34801561008157600080fd5b5061008a61016b565b6040516100979190610493565b60405180910390f35b6100a8610191565b6040516100b59190610525565b60405180910390f35b3480156100ca57600080fd5b506100d3610202565b6040516100e09190610525565b60405180910390f35b3480156100f557600080fd5b50610110600480360381019061010b9190610571565b610272565b005b34801561011e57600080fd5b506101276102cd565b60405161013491906105bf565b60405180910390f35b34801561014957600080fd5b506101526102f1565b005b34801561016057600080fd5b506101696103a1565b005b600160009054906101000a900473ffffffffffffffffffffffffffffffffffffffff1681565b6000600160009054906101000a900473ffffffffffffffffffffffffffffffffffffffff1673ffffffffffffffffffffffffffffffffffffffff163373ffffffffffffffffffffffffffffffffffffffff16146101ed57600080fd5b600160149054906101000a900460ff16905090565b60008060009054906101000a900473ffffffffffffffffffffffffffffffffffffffff1673ffffffffffffffffffffffffffffffffffffffff163373ffffffffffffffffffffffffffffffffffffffff161461025d57600080fd5b600160149054906101000a900460ff16905090565b60008054906101000a900473ffffffffffffffffffffffffffffffffffffffff1673ffffffffffffffffffffffffffffffffffffffff163373ffffffffffffffffffffffffffffffffffffffff16146102ca57600080fd5b50565b60008054906101000a900473ffffffffffffffffffffffffffffffffffffffff1681565b60008054906101000a900473ffffffffffffffffffffffffffffffffffffffff1673ffffffffffffffffffffffffffffffffffffffff163373ffffffffffffffffffffffffffffffffffffffff161461034957600080fd5b60018060146101000a81548160ff0219169083600281111561036e5761036d6104ae565b5b02179055507f6d698d70d4f24eb18cc8f76855e78a2771edd10a3d987f47da2fcf91dcd10dba60405160405180910390a1565b60008054906101000a900473ffffffffffffffffffffffffffffffffffffffff1673ffffffffffffffffffffffffffffffffffffffff163373ffffffffffffffffffffffffffffffffffffffff16146103f957600080fd5b6002600160146101000a81548160ff0219169083600281111561041f5761041e6104ae565b5b02179055507f36b3427b9db85e3915108cfe803971ea1ab2908152d7f72b55bf3a001c67a86560405160405180910390a1565b600073ffffffffffffffffffffffffffffffffffffffff82169050919050565b600061047d82610452565b9050919050565b61048d81610472565b82525050565b60006020820190506104a86000830184610484565b92915050565b7f4e487b7100000000000000000000000000000000000000000000000000000000600052602160045260246000fd5b600381106104ee576104ed6104ae565b5b50565b60008190506104ff826104dd565b919050565b600061050f826104f1565b9050919050565b61051f81610504565b82525050565b600060208201905061053a6000830184610516565b92915050565b600080fd5b61054e81610472565b811461055957600080fd5b50565b60008135905061056b81610545565b92915050565b60006020828403121561058757610586610540565b5b60006105958482850161055c565b91505092915050565b60006105a982610452565b9050919050565b6105b98161059e565b82525050565b60006020820190506105d460008301846105b0565b9291505056fea26469706673582212206406c1cd275c705a8721aaa7062effa48083da7c9d1a010c14cbf8f66a1df8c764736f6c634300080d0033",
  "immutableReferences": {},
  "source": "// SPDX-License-Identifier: GPL-3.0\npragma solidity >=0.8.2 <0.9.0;\n\ncontract FinalProject {\n\n    address payable public owner;\n    address public customer;\n\n    enum ShippingStatus {PENDING, SHIPPED, DELIVERED}\n    ShippingStatus status;\n\n    event MissionComplete();\n    event IsShipped();\n\n    modifier onlyOwner() {\n        require(msg.sender == owner);\n        _;\n    }\n\n    modifier onlyCustomer() {\n        require(msg.sender == customer);\n        _;\n    }\n\n    constructor() public {\n        owner = payable(msg.sender);\n        status = ShippingStatus.PENDING;\n    }\n\n    function setCustomer(address customer) public onlyOwner {\n        customer = customer;\n    }\n\n    function shipped() public onlyOwner {\n        status = ShippingStatus.SHIPPED;\n        emit IsShipped();\n\n    }\n\n    function delivered() public onlyOwner {\n        status = ShippingStatus.DELIVERED;\n        emit MissionComplete();\n    }\n\n    function getStatus() public view onlyOwner returns (ShippingStatus) {\n        return status;\n    }\n\n    function Status() public payable onlyCustomer returns (ShippingStatus) {\n        return status;\n    }\n}\n",
  "sourcePath": "/Users/louisjean/School/blockchaine/project/contracts/FinalProject.sol",
  "compiler": {
    "name": "solc",
    "version": "0.8.13+commit.abaa5c0e.Emscripten.clang"
  },
  "schemaVersion": "3.4.13",
  "updatedAt": "2023-03-09T11:02:56.228Z",
  "networkType": "ethereum",
  "devdoc": {
    "kind": "dev",
    "methods": {},
    "version": 1
  },
  "userdoc": {
    "kind": "user",
    "methods": {},
    "version": 1
  }
}